:100000000C943804FFFFFFFFFFFFFFFF0C941D025D
:10001000FFFFFFFFFFFFFFFFFFFFFFFFFFFFFFFFF0
:10002000FFFFFFFFFFFFFFFFFFFFFFFF0C94110427
:10003000FFFFFFFFFFFFFFFFFFFFFFFFFFFFFFFFD0
:10004000FFFFFFFFFFFFFFFF0C94A8030100F60076
:100050000C0082008900900097009E00A500AC0073
:10006000BC00C200CB00DB00E10000E00BBB00E005
:100070000ABB00EF02BB06E001BB02E108BB02EBDA
:1000800007BB00E005BB00E004BB0895EEDF0E9463
:100090005C000E9408040E94F9030E94FF030E9472
:1000A000FE00789402C09298000000915102002353
:1000B000D1F7929A0000F9CF00E00093440200E0EB
:1000C0000093460200E00093470200E000934902DB
:1000D00000E000934A0208958A93802F843239F415
:1000E00000E00093470200E00093490285C0E7E486
:1000F000F2E000810395008300914702ECE4F0E018
:100100000C945304803509F477C000E00093470253
:1001100073C0823509F470C000E0009347026CC0E0
:10012000833409F469C000E00093470265C08F344E
:1001300009F462C000E0009347025EC08E3409F407
:100140005BC000E00093470257C08C3209F454C0F2
:1001500000E00093470250C0803321F400E0009398
:1001600046024AC0813321F401E00093460244C0B4
:1001700000E00093470240C08A32F1F100E00093B2
:1001800047023AC002E0009349028533A9F101E039
:100190000093490231C000914602002331F08434BB
:1001A00059F101E00093490227C0833429F101E0AD
:1001B0000093490221C08D30F9F000E0009347021E
:1001C0001BC08A3079F400914902009348020091E3
:1001D0004902023021F4009146020093450200E0FA
:1001E00000934C0200E00093470206C000E0009339
:1001F000470200E0009349028991089504B7006422
:1002000004BF000003E200934B02BC9A0000C49AB2
:1002100000000FE612E0E9E6F2E00083118300E05F
:100220000093680202E812E0EBE6F2E0008311833B
:1002300002E812E0EDE6F2E00083118300E008C07E
:10024000202F2F5910E0F801EB5AFD4F2083039522
:100250000A30B0F302E00093530202E0009352022E
:1002600002E00093540202E00093550202E0009382
:10027000560202E000936F0202E00093700202E077
:100280000093820202E00093830200E000934D029B
:1002900000E000934C0200E000934E0200E0009367
:1002A0004F0200E00093500209B7006809BF0AB787
:1002B00000620ABF00000BB700620BBF0000089588
:1002C0000FC0C49A0000F8013081332321F03AB7FF
:1002D00030623ABF0000C49800000F5F1F4F2A959C
:1002E000222351F0322F3370332359F3F801308138
:1002F0003FB97799F2CFFDCF0895C49800000FB9A8
:10030000779BFECF8901012F0FB9779BFECF2FB9C5
:10031000779BFECFC49A00000895BD01C4980000E9
:1003200000E50FB9779BFECF03E10FB90A952FEFD8
:10033000E5E5F2E0779BFECF002379F040814FB9ED
:1003400030E050E042275327DA01A056BF4F2C91EE
:1003500031960A957799F0CFFDCF2FB92083779BFF
:10036000FECFC49A0000DB010895BD01C4980000CF
:1003700000ED0FB9779BFECF03E10FB90A95E9E6CF
:10038000F2E0A081B1812FEF779BFECF1FB111C0AA
:1003900030E03FB9779BFECF4FB1FD01408330E0A5
:1003A00050E042275327FA01E056FF4F2081119673
:1003B0000A95002369F700E00FB9779BFECF0FB1D4
:1003C0000C93133189F5A9E6B2E0ED91FC91028915
:1003D000201751F500916802002381F000E000939E
:1003E00068020FE612E0E9E6F2E00083118302E81A
:1003F00012E0EBE6F2E0008311830FC001E000930E
:10040000680202E812E0E9E6F2E0008311830FE6F9
:1004100012E0EBE6F2E00083118300E000934E026D
:1004200001E00093510205C0EEE4F2E00081039583
:100430000083C49A0000DB010895BA93AA938A93BB
:10044000FA93EA933A922A921A920A927A936A93C8
:100450005A934A933A932A931A930A938FB7ECE4E8
:10046000F2E000810395008300914D02005081F07D
:100470000A95D1F00A9531F10A95A1F10A9509F48E
:1004800040C0025009F45EC00A9509F455C05FC02F
:10049000C198000000E00093500200E000934C027D
:1004A00001E000934D0253C000914C02033009F06B
:1004B0004EC000E000934C02C19A000002E000939D
:1004C0004D0245C000914C02043009F040C000E0EC
:1004D00000934C022CE208EB11E0F2DE03E0009303
:1004E0004D0235C000914C02023089F500E00093C6
:1004F0004C0220E604EE11E0E3DE04E000934D023E
:1005000026C001E00093500220914B0230E007E04A
:10051000F4DE20914B0230E020583F4F07E0EDDE43
:100520000AB700620ABF000020E830E802E5E5DE15
:1005300007E000934D020BC0EEE4F2E0008103956A
:10054000008305C0EEE4F2E00081039500835D9B2B
:1005500036C0EBE6F2E000811181EDE6F2E00083C7
:10056000118300914402002331F405E512E0EDE629
:10057000F2E000831183ADE6B2E0ED91FC910081E1
:10058000109153020117D9F0E3E5F2E000810395E1
:10059000008300915302023118F002E000935302ED
:1005A0000091530200935602ADE6B2E0ED91FC914A
:1005B0000091530210E0E00FF11F00810CB9ABE68F
:1005C000B2E0ED91FC910081109154020117C1F04D
:1005D000E4E5F2E0008103950083009154020231CA
:1005E00018F002E000935402ABE6B2E0ED91FC910A
:1005F0000091540210E0E00FF11F00810E946C0096
:1006000000914802002309F44DC000914C020436C9
:1006100028F400914A02002309F444C000914802E2
:100620000230F1F401E010914402209145021217CA
:10063000B9F001700023A1F000914502009344023B
:1006400000914402002341F0ADE6B2E0ED91FC914F
:1006500000810093530204C000915502009353029D
:1006600000914802023019F400EA11E002C00CEADD
:1006700011E0D8010091550210E00DC00395023140
:1006800008F002E04C91202F30E0F901EB5AFD4FC9
:100690004083119613951C3088F30093550200E0B7
:1006A0000093480200915002002341F000914E0255
:1006B000093220F000E00093560204C0009153027A
:1006C00000935602ABE6B2E0ED91FC9111970181E7
:1006D000002331F4EFE4F2E000810395008303C0CE
:1006E00000E000934F02009150020023F1F00091CE
:1006F0004E02033320F400914F020B30B0F000E0C3
:1007000000934E0200E000934F0202E0ABE6B2E03D
:10071000ED91FC911197018300E00093500200E0FD
:1007200000934D0200E0009351028FBF099119918F
:10073000299139914991599169917991099019902B
:1007400029903990E991F9918991A991B9911895D8
:100750008A93FA93EA933A922A921A920A927A9395
:100760006A935A934A933A932A931A930A938FB7A8
:1007700000914D02065019F00A95A9F029C0209168
:100780004B0230E007E0B9DD20914B0230E0205809
:100790003F4F07E0B2DD20E830E802E5AEDD07E0DC
:1007A00000934D0215C0E1DD20914B0230E007E0DF
:1007B000A4DD20914B0230E020503F4F07E09DDD4B
:1007C00020E830E802E599DDA8DD06E000934D025F
:1007D0008FBF099119912991399149915991699145
:1007E00079910990199029903990E991F99189911D
:1007F000189507B3006A07BB04E50DB908950BE42B
:1008000005BD00E002BD00E004BD0AEF03BD089590
:1008100000E000BD07E609B908E90AB906E800BD2D
:100820000895FA93EA933A932A931A930A933FB757
:10083000009155020395023108F002E00093550241
:100840002CB110E0F801EB5AFD4F20832A3011F44F
:1008500001E001C000E000934A023FBF09911991F5
:1008600029913991E991F991189500008895FECF69
:100870000FE90DBF00E00EBFC0E8D0E00E94980471
:10088000002311F00E94A8040E9446000E94350433
:100890000C9435047591659155914591159011FA17
:1008A000259035900895F9DF041B10E003C0F4DFB4
:1008B000041B150B20E030E005C0ECDF041B150B1A
:1008C000260B370BB8F010FC17C045910590E00FD0
:1008D000F11F0417100540E02407340758F436F4DC
:1008E00004910024F101E01BF0090994E00FF11FCD
:1008F00025903590F101099411F4D6F7F1CF319696
:100900000EF0319650E060E070E045914B3F48F0CA
:1009100089F34F3F29F04E3F11F075916591559144
:100920004591041B150B260B370B39F318F3E7CF52
:1009300001E0089520E006D0E9F70895259102D05E
:10094000E9F708952D9301501040202F212B089591
:1009500084E899E0FC0105911491FC013296A5917F
:10096000B491FC01349625913491422F432B19F018
:10097000F901E4DF01C0DEDF069619E08039910756
:1009800048F30895A401A00090095100440200001A
:1009900000316253C4F5A697B988DBEA7D4C1F2E5F
:1009A0004372211087B6E5D4FACB98A93E0F5C6D4F
:1009B00086B7E4D5427320113F0E5D6CFBCA99A83F
:1009C000C5F4A796013063527C4D1E2FB889DAEB2F
:1009D0003D0C5F6EF9C89BAA84B5E6D7407122131F
:1009E0007E4F1C2DBA8BD8E9C7F6A594033261500F
:1009F000BB8AD9E87F4E1D2C02336051C6F7A495FF
:100A0000F8C99AAB3C0D5E6F4170231285B4E7D6EE
:100A10007A4B1829BE8FDCEDC3F2A19007366554DE
:100A200039085B6AFDCC9FAE80B1E2D344752617CE
:100A3000FCCD9EAF38095A6B4574271681B0E3D2BE
:100A4000BF8EDDEC7B4A192806376455C2F3A091AE
:100A50004776251483B2E1D0FECF9CAD3A0B58699E
:100A600004356657C0F1A293BD8CDFEE79481B2A8E
:100A7000C1F0A3920534675678491A2BBC8DDEEF7E
:100A800082B3E0D1467724153B0A5968FFCE9DAC6E
:100A9000245041434B2C312A30340D0A2450414319
:100AA0004B2C302A30350D0A003098200031FF0FD2
:100AB0000032C8280033C85600344EF60035F6F52B
:100AC0000036185C0037D651003844040039E00085
:100AD000003A00000000354F00021F01000438D822
:100AE000000500A10007124C000880080009210140
:100AF000000A0004000B4041000C7E00000D0000C5
:100B0000000E169D000F802F0010B0F80012E000BC
:100B10000013A114001481910015696200160002EF
:100B2000001700020018B1400019780F001A3F04A6
:100B3000001C5800FFFFFFFFFFFFFFFFFFFFFFFF4D
:100B4000FFFFFFFFFFFFFFFFFFFFFFFFFFFFFFFFB5
:100B5000FFFFFFFFFFFFFFFFFFFFFFFFFFFFFFFFA5
:100B6000FFFFFFFFFFFFFFFFFFFFFFFFFFFFFFFF95
:100B7000FFFFFFFFFFFFFFFFFFFFFFFFFFFFFFFF85
:00000001FF
