:100000000C940F03FFFFFFFFFFFFFFFF0C9487011E
:10001000FFFFFFFFFFFFFFFFFFFFFFFFFFFFFFFFF0
:10002000FFFFFFFFFFFFFFFFFFFFFFFF0C94E80252
:10003000FFFFFFFFFFFFFFFFFFFFFFFFFFFFFFFFD0
:10004000FFFFFFFFFFFFFFFF0C94900200000C0278
:100050000800A401B001BE01CE01DD01E9010702E3
:10006000E40100E00BBB00E00ABB00EF02BB06E0CE
:1000700001BB02E108BB02EB07BB00E005BB00E0EF
:1000800004BB0895EEDF0E9458000E94DF020E9428
:10009000D0020E94D6020E946800789402C0929812
:1000A0000000009137020023D1F7929A0000F9CFA7
:1000B00000E000932C0200E000932D0200E000938A
:1000C0002E0200E000932F0200E00093300208951A
:1000D00004B7006404BF000003E200933102BC9A3D
:1000E0000000C49A000005E512E0EFE4F2E00083AE
:1000F000118300E000934E0208E612E0E1E5F2E031
:100100000083118308E612E0E3E5F2E00083118347
:1001100000E008C0202F2F5B10E0F801E55CFD4FE8
:10012000208303950A30B0F302E00093390202E025
:100130000093380202E000933A0202E000933B028F
:1001400002E000933C0202E00093550202E00093BB
:10015000560202E00093680202E00093690200E0A8
:100160000093330200E00093320200E00093340277
:1001700000E00093350200E00093360209B7006802
:1001800009BF0AB700620ABF00000BB700620BBFCD
:10019000000008950FC0C49A0000F8013081332395
:1001A00021F03AB730623ABF0000C49800000F5FF8
:1001B0001F4F2A95222351F0322F3370332359F3E6
:1001C000F80130813FB97799F2CFFDCF0895C498F7
:1001D00000000FB9779BFECF8901012F0FB9779BE4
:1001E000FECF2FB9779BFECFC49A00000895BD01C2
:1001F000C498000000E50FB9779BFECF03E10FB96B
:100200000A952FEFEBE3F2E0779BFECF002379F026
:1002100040814FB930E050E042275327DA01A05621
:10022000BF4F2C9131960A957799F0CFFDCF2FB91A
:100230002083779BFECFC49A0000DB010895BD01A7
:10024000C498000000ED0FB9779BFECF03E10FB912
:100250000A95EFE4F2E0A081B1812FEF779BFECF0A
:100260001FB111C030E03FB9779BFECF4FB1FD0108
:10027000408330E050E042275327FA01E056FF4F19
:10028000208111960A95002369F700E00FB9779B4A
:10029000FECF0FB10C93133189F5AFE4B2E0ED91CD
:1002A000FC910289201751F500914E02002381F044
:1002B00000E000934E0205E512E0EFE4F2E0008377
:1002C000118308E612E0E1E5F2E0008311830FC03C
:1002D00001E000934E0208E612E0EFE4F2E0008352
:1002E000118305E512E0E1E5F2E00083118300E00F
:1002F0000093340201E00093370205C0E4E3F2E02A
:10030000008103950083C49A0000DB010895BA932D
:10031000AA938A93FA93EA933A922A921A920A92A9
:100320007A936A935A934A933A932A931A930A9325
:100330008FB7E2E3F2E0008103950083009133027E
:10034000ECE4F0E00C942A03C198000000E0009374
:10035000360200E00093320201E0009333025CC0F9
:1003600000913202033009F057C000E000933202DE
:10037000C19A000002E0009333024EC000913202A5
:10038000043009F049C000E0009332022CE200EA98
:1003900011E000DF03E0009333023EC0009132021F
:1003A0000230D1F500E00093320220E60CEC11E0BF
:1003B000F1DE04E0009333022FC001E00093360227
:1003C00005E00093330228C0E4E3F2E000810395E6
:1003D0000083E2E3F2E0008100FF1EC020913102C1
:1003E00030E007E0F4DE2091310230E020503F4F52
:1003F00007E0EDDE0AB700620ABF000020E830E83F
:1004000002E5E5DEF4DE06E00093330205C0E4E336
:10041000F2E00081039500835D9B2CC0E1E5F2E0F2
:1004200000811181E3E5F2E000831183A3E5B2E0EE
:10043000ED91FC910081109139020117D9F0E9E3A7
:10044000F2E000810395008300913902023118F037
:1004500002E0009339020091390200933C02A3E5C7
:10046000B2E0ED91FC910091390210E0E00FF11F34
:1004700000810CB900913602002341F00091340252
:10048000093220F000E000933C0204C000913902E0
:1004900000933C02A1E5B2E0ED91FC91119701813E
:1004A000002331F4E5E3F2E000810395008303C00B
:1004B00000E000933502009136020023F1F0009134
:1004C0003402033320F4009135020B30B0F000E029
:1004D0000093340200E00093350202E0A1E5B2E0AF
:1004E000ED91FC911197018300E00093360200E04A
:1004F0000093330200E0009337028FBF09911991F6
:10050000299139914991599169917991099019905D
:1005100029903990E991F9918991A991B99118950A
:100520008A93FA93EA933A922A921A920A927A93C7
:100530006A935A934A933A932A931A930A938FB7DA
:1005400000913302065019F00A95A9F018C02091C5
:10055000310230E007E03BDE2091310230E02058EC
:100560003F4F07E034DE20E830E802E530DE07E008
:100570000093330204C063DE05E0009333028FBFB3
:1005800009911991299139914991599169917991DB
:100590000990199029903990E991F99189911895CC
:1005A00007B3006A07BB04E50DB908950BE405BD68
:1005B00000E002BD00E004BD0AEF03BD089500E0C5
:1005C00000BD07E609B908E90AB906E800BD0895C3
:1005D000FA93EA933A932A931A930A933FB70091B6
:1005E0003B020395023108F002E000933B022CB17C
:1005F00010E0F801E55CFD4F20832A3011F401E0A2
:1006000001C000E0009330023FBF09911991299188
:100610003991E991F991189500008895FECF0FE97D
:100620000DBF00E00EBFC0E8D0E00E946F030023C2
:1006300011F00E947F030E9442000E940C030C9460
:100640000C037591659155914591159011FA25907E
:1006500035900895F9DF041B10E003C0F4DF041B9C
:10066000150B20E030E005C0ECDF041B150B260B5A
:10067000370BB8F010FC17C045910590E00FF11F43
:100680000417100540E02407340758F436F40491A9
:100690000024F101E01BF0090994E00FF11F2590FF
:1006A0003590F101099411F4D6F7F1CF31960EF09F
:1006B000319650E060E070E045914B3F48F089F39F
:1006C0004F3F29F04E3F11F075916591559145913D
:1006D000041B150B260B370B39F318F3E7CF01E09A
:1006E000089520E006D0E9F70895259102D0E9F7B2
:1006F00008952D9301501040202F212B089582E35F
:1007000097E0FC0105911491FC013296A591B491FA
:10071000FC01349625913491422F432B19F0F901B5
:10072000E4DF01C0DEDF069617E08E33910748F361
:1007300008958C01A0003E074F002C0200000031FC
:100740006253C4F5A697B988DBEA7D4C1F2E43722D
:10075000211087B6E5D4FACB98A93E0F5C6D86B719
:10076000E4D5427320113F0E5D6CFBCA99A8C5F415
:10077000A796013063527C4D1E2FB889DAEB3D0CF1
:100780005F6EF9C89BAA84B5E6D7407122137E4FED
:100790001C2DBA8BD8E9C7F6A59403326150BB8AE9
:1007A000D9E87F4E1D2C02336051C6F7A495F8C9D5
:1007B0009AAB3C0D5E6F4170231285B4E7D67A4B3D
:1007C0001829BE8FDCEDC3F2A190073665543908B5
:1007D0005B6AFDCC9FAE80B1E2D344752617FCCD99
:1007E0009EAF38095A6B4574271681B0E3D2BF8E8D
:1007F000DDEC7B4A192806376455C2F3A091477691
:10080000251483B2E1D0FECF9CAD3A0B5869043574
:100810006657C0F1A293BD8CDFEE79481B2AC1F068
:10082000A3920534675678491A2BBC8DDEEF82B34C
:10083000E0D1467724153B0A5968FFCE9DAC0030C5
:1008400098200031FF0F0032C8280033C85600340A
:100850004EF60035F6F50036185C0037D6510038F4
:1008600044040039E000003A00000000354F000267
:100870001F01000438D8000500A10007124C000831
:10088000800800092101000A0004000B4041000C0F
:100890007E00000D0000000E169D000F802F00103E
:1008A000B0F80012E0000013A114001481910015AB
:1008B000696200160002001700020018B14000191A
:1008C000780F001A3F04001C5800FFFFFFFFFFFFD6
:1008D000FFFFFFFFFFFFFFFFFFFFFFFFFFFFFFFF28
:1008E000FFFFFFFFFFFFFFFFFFFFFFFFFFFFFFFF18
:1008F000FFFFFFFFFFFFFFFFFFFFFFFFFFFFFFFF08
:10090000FFFFFFFFFFFFFFFFFFFFFFFFFFFFFFFFF7
:00000001FF
